{"contracts/mocks/MockPermit2.sol":{"MockPermit2":{"abi":[{"anonymous":false,"inputs":[{"indexed":false,"internalType":"address","name":"owner","type":"address"},{"indexed":false,"internalType":"address","name":"token","type":"address"},{"indexed":false,"internalType":"uint256","name":"amount","type":"uint256"},{"indexed":false,"internalType":"address","name":"to","type":"address"},{"indexed":false,"internalType":"uint256","name":"nonce","type":"uint256"},{"indexed":false,"internalType":"uint256","name":"deadline","type":"uint256"}],"name":"MockTransferFromCalled","type":"event"},{"inputs":[{"components":[{"components":[{"internalType":"address","name":"token","type":"address"},{"internalType":"uint256","name":"amount","type":"uint256"}],"internalType":"struct MockPermit2.TokenPermissions","name":"permitted","type":"tuple"},{"internalType":"uint256","name":"nonce","type":"uint256"},{"internalType":"uint256","name":"deadline","type":"uint256"}],"internalType":"struct MockPermit2.PermitTransferFrom","name":"permit","type":"tuple"},{"components":[{"internalType":"address","name":"to","type":"address"},{"internalType":"uint256","name":"requestedAmount","type":"uint256"}],"internalType":"struct MockPermit2.SignatureTransferDetails","name":"transferDetails","type":"tuple"},{"internalType":"address","name":"owner","type":"address"},{"internalType":"bytes","name":"","type":"bytes"}],"name":"permitTransferFrom","outputs":[],"stateMutability":"nonpayable","type":"function"},{"inputs":[],"name":"revertReason","outputs":[{"internalType":"string","name":"","type":"string"}],"stateMutability":"view","type":"function"},{"inputs":[{"internalType":"bool","name":"_shouldRevert","type":"bool"},{"internalType":"string","name":"reason","type":"string"}],"name":"setShouldRevert","outputs":[],"stateMutability":"nonpayable","type":"function"},{"inputs":[],"name":"shouldRevert","outputs":[{"internalType":"bool","name":"","type":"bool"}],"stateMutability":"view","type":"function"}],"evm":{"bytecode":{"linkReferences":{},"object":"60c0604052601a60809081527f4d6f636b5065726d6974323a20666f726365642072657665727400000000000060a05260019061003c90826100f0565b5034801561004957600080fd5b506101af565b634e487b7160e01b600052604160045260246000fd5b600181811c9082168061007957607f821691505b60208210810361009957634e487b7160e01b600052602260045260246000fd5b50919050565b601f8211156100eb576000816000526020600020601f850160051c810160208610156100c85750805b601f850160051c820191505b818110156100e7578281556001016100d4565b5050505b505050565b81516001600160401b038111156101095761010961004f565b61011d816101178454610065565b8461009f565b602080601f831160018114610152576000841561013a5750858301515b600019600386901b1c1916600185901b1785556100e7565b600085815260208120601f198616915b8281101561018157888601518255948401946001909101908401610162565b508582101561019f5787850151600019600388901b60f8161c191681555b5050505050600190811b01905550565b61071a806101be6000396000f3fe608060405234801561001057600080fd5b506004361061004c5760003560e01c8063054cabe01461005157806330f28b7a1461006657806361b5b63614610079578063d3072d8214610097575b600080fd5b61006461005f366004610373565b6100b4565b005b6100646100743660046103e4565b6100dc565b61008161028b565b60405161008e919061046d565b60405180910390f35b6000546100a49060ff1681565b604051901515815260200161008e565b6000805460ff191684151517905580156100d75760016100d5828483610554565b505b505050565b60005460ff161561010b57600160405162461bcd60e51b81526004016101029190610615565b60405180910390fd5b84606001354211156101565760405162461bcd60e51b8152602060048201526014602482015273135bd8dad4195c9b5a5d0c8e88195e1c1a5c995960621b6044820152606401610102565b7f4c4afb04e07efc66bf529604dce6e652d2eea42083ad0b965b5e5f11af3476a58361018560208801886106a5565b6020870180359061019690896106a5565b604080516001600160a01b0395861681529385166020850152838101929092529092166060808301919091529188013560808201529087013560a082015260c00160405180910390a16101ec60208601866106a5565b6001600160a01b03166323b872dd8461020860208801886106a5565b6040516001600160e01b031960e085901b1681526001600160a01b03928316600482015291166024820152602087013560448201526064016020604051808303816000875af115801561025f573d6000803e3d6000fd5b505050506040513d601f19601f8201168201806040525081019061028391906106c7565b505050505050565b60018054610298906104d2565b80601f01602080910402602001604051908101604052809291908181526020018280546102c4906104d2565b80156103115780601f106102e657610100808354040283529160200191610311565b820191906000526020600020905b8154815290600101906020018083116102f457829003601f168201915b505050505081565b801515811461032757600080fd5b50565b60008083601f84011261033c57600080fd5b50813567ffffffffffffffff81111561035457600080fd5b60208301915083602082850101111561036c57600080fd5b9250929050565b60008060006040848603121561038857600080fd5b833561039381610319565b9250602084013567ffffffffffffffff8111156103af57600080fd5b6103bb8682870161032a565b9497909650939450505050565b80356001600160a01b03811681146103df57600080fd5b919050565b60008060008060008587036101008112156103fe57600080fd5b608081121561040c57600080fd5b8695506040607f198201121561042157600080fd5b5060808601935061043460c087016103c8565b925060e086013567ffffffffffffffff81111561045057600080fd5b61045c8882890161032a565b969995985093965092949392505050565b60006020808352835180602085015260005b8181101561049b5785810183015185820160400152820161047f565b506000604082860101526040601f19601f8301168501019250505092915050565b634e487b7160e01b600052604160045260246000fd5b600181811c908216806104e657607f821691505b60208210810361050657634e487b7160e01b600052602260045260246000fd5b50919050565b601f8211156100d7576000816000526020600020601f850160051c810160208610156105355750805b601f850160051c820191505b8181101561028357828155600101610541565b67ffffffffffffffff83111561056c5761056c6104bc565b6105808361057a83546104d2565b8361050c565b6000601f8411600181146105b4576000851561059c5750838201355b600019600387901b1c1916600186901b17835561060e565b600083815260209020601f19861690835b828110156105e557868501358255602094850194600190920191016105c5565b50868210156106025760001960f88860031b161c19848701351681555b505060018560011b0183555b5050505050565b6000602080835260008454610629816104d2565b806020870152604060018084166000811461064b576001811461066757610697565b60ff19851660408a0152604084151560051b8a01019550610697565b89600052602060002060005b8581101561068e5781548b8201860152908301908801610673565b8a016040019650505b509398975050505050505050565b6000602082840312156106b757600080fd5b6106c0826103c8565b9392505050565b6000602082840312156106d957600080fd5b81516106c08161031956fea26469706673582212200ed8189381d36af535f7a1a730bb96a0fb3efc8d2e41b71d08cc5e83aa8e6a0664736f6c63430008180033","opcodes":"PUSH1 0xC0 PUSH1 0x40 MSTORE PUSH1 0x1A PUSH1 0x80 SWAP1 DUP2 MSTORE PUSH32 0x4D6F636B5065726D6974323A20666F7263656420726576657274000000000000 PUSH1 0xA0 MSTORE PUSH1 0x1 SWAP1 PUSH2 0x3C SWAP1 DUP3 PUSH2 0xF0 JUMP JUMPDEST POP CALLVALUE DUP1 ISZERO PUSH2 0x49 JUMPI PUSH1 0x0 DUP1 REVERT JUMPDEST POP PUSH2 0x1AF JUMP JUMPDEST PUSH4 0x4E487B71 PUSH1 0xE0 SHL PUSH1 0x0 MSTORE PUSH1 0x41 PUSH1 0x4 MSTORE PUSH1 0x24 PUSH1 0x0 REVERT JUMPDEST PUSH1 0x1 DUP2 DUP2 SHR SWAP1 DUP3 AND DUP1 PUSH2 0x79 JUMPI PUSH1 0x7F DUP3 AND SWAP2 POP JUMPDEST PUSH1 0x20 DUP3 LT DUP2 SUB PUSH2 0x99 JUMPI PUSH4 0x4E487B71 PUSH1 0xE0 SHL PUSH1 0x0 MSTORE PUSH1 0x22 PUSH1 0x4 MSTORE PUSH1 0x24 PUSH1 0x0 REVERT JUMPDEST POP SWAP2 SWAP1 POP JUMP JUMPDEST PUSH1 0x1F DUP3 GT ISZERO PUSH2 0xEB JUMPI PUSH1 0x0 DUP2 PUSH1 0x0 MSTORE PUSH1 0x20 PUSH1 0x0 KECCAK256 PUSH1 0x1F DUP6 ADD PUSH1 0x5 SHR DUP2 ADD PUSH1 0x20 DUP7 LT ISZERO PUSH2 0xC8 JUMPI POP DUP1 JUMPDEST PUSH1 0x1F DUP6 ADD PUSH1 0x5 SHR DUP3 ADD SWAP2 POP JUMPDEST DUP2 DUP2 LT ISZERO PUSH2 0xE7 JUMPI DUP3 DUP2 SSTORE PUSH1 0x1 ADD PUSH2 0xD4 JUMP JUMPDEST POP POP POP JUMPDEST POP POP POP JUMP JUMPDEST DUP2 MLOAD PUSH1 0x1 PUSH1 0x1 PUSH1 0x40 SHL SUB DUP2 GT ISZERO PUSH2 0x109 JUMPI PUSH2 0x109 PUSH2 0x4F JUMP JUMPDEST PUSH2 0x11D DUP2 PUSH2 0x117 DUP5 SLOAD PUSH2 0x65 JUMP JUMPDEST DUP5 PUSH2 0x9F JUMP JUMPDEST PUSH1 0x20 DUP1 PUSH1 0x1F DUP4 GT PUSH1 0x1 DUP2 EQ PUSH2 0x152 JUMPI PUSH1 0x0 DUP5 ISZERO PUSH2 0x13A JUMPI POP DUP6 DUP4 ADD MLOAD JUMPDEST PUSH1 0x0 NOT PUSH1 0x3 DUP7 SWAP1 SHL SHR NOT AND PUSH1 0x1 DUP6 SWAP1 SHL OR DUP6 SSTORE PUSH2 0xE7 JUMP JUMPDEST PUSH1 0x0 DUP6 DUP2 MSTORE PUSH1 0x20 DUP2 KECCAK256 PUSH1 0x1F NOT DUP7 AND SWAP2 JUMPDEST DUP3 DUP2 LT ISZERO PUSH2 0x181 JUMPI DUP9 DUP7 ADD MLOAD DUP3 SSTORE SWAP5 DUP5 ADD SWAP5 PUSH1 0x1 SWAP1 SWAP2 ADD SWAP1 DUP5 ADD PUSH2 0x162 JUMP JUMPDEST POP DUP6 DUP3 LT ISZERO PUSH2 0x19F JUMPI DUP8 DUP6 ADD MLOAD PUSH1 0x0 NOT PUSH1 0x3 DUP9 SWAP1 SHL PUSH1 0xF8 AND SHR NOT AND DUP2 SSTORE JUMPDEST POP POP POP POP POP PUSH1 0x1 SWAP1 DUP2 SHL ADD SWAP1 SSTORE POP JUMP JUMPDEST PUSH2 0x71A DUP1 PUSH2 0x1BE PUSH1 0x0 CODECOPY PUSH1 0x0 RETURN INVALID PUSH1 0x80 PUSH1 0x40 MSTORE CALLVALUE DUP1 ISZERO PUSH2 0x10 JUMPI PUSH1 0x0 DUP1 REVERT JUMPDEST POP PUSH1 0x4 CALLDATASIZE LT PUSH2 0x4C JUMPI PUSH1 0x0 CALLDATALOAD PUSH1 0xE0 SHR DUP1 PUSH4 0x54CABE0 EQ PUSH2 0x51 JUMPI DUP1 PUSH4 0x30F28B7A EQ PUSH2 0x66 JUMPI DUP1 PUSH4 0x61B5B636 EQ PUSH2 0x79 JUMPI DUP1 PUSH4 0xD3072D82 EQ PUSH2 0x97 JUMPI JUMPDEST PUSH1 0x0 DUP1 REVERT JUMPDEST PUSH2 0x64 PUSH2 0x5F CALLDATASIZE PUSH1 0x4 PUSH2 0x373 JUMP JUMPDEST PUSH2 0xB4 JUMP JUMPDEST STOP JUMPDEST PUSH2 0x64 PUSH2 0x74 CALLDATASIZE PUSH1 0x4 PUSH2 0x3E4 JUMP JUMPDEST PUSH2 0xDC JUMP JUMPDEST PUSH2 0x81 PUSH2 0x28B JUMP JUMPDEST PUSH1 0x40 MLOAD PUSH2 0x8E SWAP2 SWAP1 PUSH2 0x46D JUMP JUMPDEST PUSH1 0x40 MLOAD DUP1 SWAP2 SUB SWAP1 RETURN JUMPDEST PUSH1 0x0 SLOAD PUSH2 0xA4 SWAP1 PUSH1 0xFF AND DUP2 JUMP JUMPDEST PUSH1 0x40 MLOAD SWAP1 ISZERO ISZERO DUP2 MSTORE PUSH1 0x20 ADD PUSH2 0x8E JUMP JUMPDEST PUSH1 0x0 DUP1 SLOAD PUSH1 0xFF NOT AND DUP5 ISZERO ISZERO OR SWAP1 SSTORE DUP1 ISZERO PUSH2 0xD7 JUMPI PUSH1 0x1 PUSH2 0xD5 DUP3 DUP5 DUP4 PUSH2 0x554 JUMP JUMPDEST POP JUMPDEST POP POP POP JUMP JUMPDEST PUSH1 0x0 SLOAD PUSH1 0xFF AND ISZERO PUSH2 0x10B JUMPI PUSH1 0x1 PUSH1 0x40 MLOAD PUSH3 0x461BCD PUSH1 0xE5 SHL DUP2 MSTORE PUSH1 0x4 ADD PUSH2 0x102 SWAP2 SWAP1 PUSH2 0x615 JUMP JUMPDEST PUSH1 0x40 MLOAD DUP1 SWAP2 SUB SWAP1 REVERT JUMPDEST DUP5 PUSH1 0x60 ADD CALLDATALOAD TIMESTAMP GT ISZERO PUSH2 0x156 JUMPI PUSH1 0x40 MLOAD PUSH3 0x461BCD PUSH1 0xE5 SHL DUP2 MSTORE PUSH1 0x20 PUSH1 0x4 DUP3 ADD MSTORE PUSH1 0x14 PUSH1 0x24 DUP3 ADD MSTORE PUSH20 0x135BD8DAD4195C9B5A5D0C8E88195E1C1A5C9959 PUSH1 0x62 SHL PUSH1 0x44 DUP3 ADD MSTORE PUSH1 0x64 ADD PUSH2 0x102 JUMP JUMPDEST PUSH32 0x4C4AFB04E07EFC66BF529604DCE6E652D2EEA42083AD0B965B5E5F11AF3476A5 DUP4 PUSH2 0x185 PUSH1 0x20 DUP9 ADD DUP9 PUSH2 0x6A5 JUMP JUMPDEST PUSH1 0x20 DUP8 ADD DUP1 CALLDATALOAD SWAP1 PUSH2 0x196 SWAP1 DUP10 PUSH2 0x6A5 JUMP JUMPDEST PUSH1 0x40 DUP1 MLOAD PUSH1 0x1 PUSH1 0x1 PUSH1 0xA0 SHL SUB SWAP6 DUP7 AND DUP2 MSTORE SWAP4 DUP6 AND PUSH1 0x20 DUP6 ADD MSTORE DUP4 DUP2 ADD SWAP3 SWAP1 SWAP3 MSTORE SWAP1 SWAP3 AND PUSH1 0x60 DUP1 DUP4 ADD SWAP2 SWAP1 SWAP2 MSTORE SWAP2 DUP9 ADD CALLDATALOAD PUSH1 0x80 DUP3 ADD MSTORE SWAP1 DUP8 ADD CALLDATALOAD PUSH1 0xA0 DUP3 ADD MSTORE PUSH1 0xC0 ADD PUSH1 0x40 MLOAD DUP1 SWAP2 SUB SWAP1 LOG1 PUSH2 0x1EC PUSH1 0x20 DUP7 ADD DUP7 PUSH2 0x6A5 JUMP JUMPDEST PUSH1 0x1 PUSH1 0x1 PUSH1 0xA0 SHL SUB AND PUSH4 0x23B872DD DUP5 PUSH2 0x208 PUSH1 0x20 DUP9 ADD DUP9 PUSH2 0x6A5 JUMP JUMPDEST PUSH1 0x40 MLOAD PUSH1 0x1 PUSH1 0x1 PUSH1 0xE0 SHL SUB NOT PUSH1 0xE0 DUP6 SWAP1 SHL AND DUP2 MSTORE PUSH1 0x1 PUSH1 0x1 PUSH1 0xA0 SHL SUB SWAP3 DUP4 AND PUSH1 0x4 DUP3 ADD MSTORE SWAP2 AND PUSH1 0x24 DUP3 ADD MSTORE PUSH1 0x20 DUP8 ADD CALLDATALOAD PUSH1 0x44 DUP3 ADD MSTORE PUSH1 0x64 ADD PUSH1 0x20 PUSH1 0x40 MLOAD DUP1 DUP4 SUB DUP2 PUSH1 0x0 DUP8 GAS CALL ISZERO DUP1 ISZERO PUSH2 0x25F JUMPI RETURNDATASIZE PUSH1 0x0 DUP1 RETURNDATACOPY RETURNDATASIZE PUSH1 0x0 REVERT JUMPDEST POP POP POP POP PUSH1 0x40 MLOAD RETURNDATASIZE PUSH1 0x1F NOT PUSH1 0x1F DUP3 ADD AND DUP3 ADD DUP1 PUSH1 0x40 MSTORE POP DUP2 ADD SWAP1 PUSH2 0x283 SWAP2 SWAP1 PUSH2 0x6C7 JUMP JUMPDEST POP POP POP POP POP POP JUMP JUMPDEST PUSH1 0x1 DUP1 SLOAD PUSH2 0x298 SWAP1 PUSH2 0x4D2 JUMP JUMPDEST DUP1 PUSH1 0x1F ADD PUSH1 0x20 DUP1 SWAP2 DIV MUL PUSH1 0x20 ADD PUSH1 0x40 MLOAD SWAP1 DUP2 ADD PUSH1 0x40 MSTORE DUP1 SWAP3 SWAP2 SWAP1 DUP2 DUP2 MSTORE PUSH1 0x20 ADD DUP3 DUP1 SLOAD PUSH2 0x2C4 SWAP1 PUSH2 0x4D2 JUMP JUMPDEST DUP1 ISZERO PUSH2 0x311 JUMPI DUP1 PUSH1 0x1F LT PUSH2 0x2E6 JUMPI PUSH2 0x100 DUP1 DUP4 SLOAD DIV MUL DUP4 MSTORE SWAP2 PUSH1 0x20 ADD SWAP2 PUSH2 0x311 JUMP JUMPDEST DUP3 ADD SWAP2 SWAP1 PUSH1 0x0 MSTORE PUSH1 0x20 PUSH1 0x0 KECCAK256 SWAP1 JUMPDEST DUP2 SLOAD DUP2 MSTORE SWAP1 PUSH1 0x1 ADD SWAP1 PUSH1 0x20 ADD DUP1 DUP4 GT PUSH2 0x2F4 JUMPI DUP3 SWAP1 SUB PUSH1 0x1F AND DUP3 ADD SWAP2 JUMPDEST POP POP POP POP POP DUP2 JUMP JUMPDEST DUP1 ISZERO ISZERO DUP2 EQ PUSH2 0x327 JUMPI PUSH1 0x0 DUP1 REVERT JUMPDEST POP JUMP JUMPDEST PUSH1 0x0 DUP1 DUP4 PUSH1 0x1F DUP5 ADD SLT PUSH2 0x33C JUMPI PUSH1 0x0 DUP1 REVERT JUMPDEST POP DUP2 CALLDATALOAD PUSH8 0xFFFFFFFFFFFFFFFF DUP2 GT ISZERO PUSH2 0x354 JUMPI PUSH1 0x0 DUP1 REVERT JUMPDEST PUSH1 0x20 DUP4 ADD SWAP2 POP DUP4 PUSH1 0x20 DUP3 DUP6 ADD ADD GT ISZERO PUSH2 0x36C JUMPI PUSH1 0x0 DUP1 REVERT JUMPDEST SWAP3 POP SWAP3 SWAP1 POP JUMP JUMPDEST PUSH1 0x0 DUP1 PUSH1 0x0 PUSH1 0x40 DUP5 DUP7 SUB SLT ISZERO PUSH2 0x388 JUMPI PUSH1 0x0 DUP1 REVERT JUMPDEST DUP4 CALLDATALOAD PUSH2 0x393 DUP2 PUSH2 0x319 JUMP JUMPDEST SWAP3 POP PUSH1 0x20 DUP5 ADD CALLDATALOAD PUSH8 0xFFFFFFFFFFFFFFFF DUP2 GT ISZERO PUSH2 0x3AF JUMPI PUSH1 0x0 DUP1 REVERT JUMPDEST PUSH2 0x3BB DUP7 DUP3 DUP8 ADD PUSH2 0x32A JUMP JUMPDEST SWAP5 SWAP8 SWAP1 SWAP7 POP SWAP4 SWAP5 POP POP POP POP JUMP JUMPDEST DUP1 CALLDATALOAD PUSH1 0x1 PUSH1 0x1 PUSH1 0xA0 SHL SUB DUP2 AND DUP2 EQ PUSH2 0x3DF JUMPI PUSH1 0x0 DUP1 REVERT JUMPDEST SWAP2 SWAP1 POP JUMP JUMPDEST PUSH1 0x0 DUP1 PUSH1 0x0 DUP1 PUSH1 0x0 DUP6 DUP8 SUB PUSH2 0x100 DUP2 SLT ISZERO PUSH2 0x3FE JUMPI PUSH1 0x0 DUP1 REVERT JUMPDEST PUSH1 0x80 DUP2 SLT ISZERO PUSH2 0x40C JUMPI PUSH1 0x0 DUP1 REVERT JUMPDEST DUP7 SWAP6 POP PUSH1 0x40 PUSH1 0x7F NOT DUP3 ADD SLT ISZERO PUSH2 0x421 JUMPI PUSH1 0x0 DUP1 REVERT JUMPDEST POP PUSH1 0x80 DUP7 ADD SWAP4 POP PUSH2 0x434 PUSH1 0xC0 DUP8 ADD PUSH2 0x3C8 JUMP JUMPDEST SWAP3 POP PUSH1 0xE0 DUP7 ADD CALLDATALOAD PUSH8 0xFFFFFFFFFFFFFFFF DUP2 GT ISZERO PUSH2 0x450 JUMPI PUSH1 0x0 DUP1 REVERT JUMPDEST PUSH2 0x45C DUP9 DUP3 DUP10 ADD PUSH2 0x32A JUMP JUMPDEST SWAP7 SWAP10 SWAP6 SWAP9 POP SWAP4 SWAP7 POP SWAP3 SWAP5 SWAP4 SWAP3 POP POP POP JUMP JUMPDEST PUSH1 0x0 PUSH1 0x20 DUP1 DUP4 MSTORE DUP4 MLOAD DUP1 PUSH1 0x20 DUP6 ADD MSTORE PUSH1 0x0 JUMPDEST DUP2 DUP2 LT ISZERO PUSH2 0x49B JUMPI DUP6 DUP2 ADD DUP4 ADD MLOAD DUP6 DUP3 ADD PUSH1 0x40 ADD MSTORE DUP3 ADD PUSH2 0x47F JUMP JUMPDEST POP PUSH1 0x0 PUSH1 0x40 DUP3 DUP7 ADD ADD MSTORE PUSH1 0x40 PUSH1 0x1F NOT PUSH1 0x1F DUP4 ADD AND DUP6 ADD ADD SWAP3 POP POP POP SWAP3 SWAP2 POP POP JUMP JUMPDEST PUSH4 0x4E487B71 PUSH1 0xE0 SHL PUSH1 0x0 MSTORE PUSH1 0x41 PUSH1 0x4 MSTORE PUSH1 0x24 PUSH1 0x0 REVERT JUMPDEST PUSH1 0x1 DUP2 DUP2 SHR SWAP1 DUP3 AND DUP1 PUSH2 0x4E6 JUMPI PUSH1 0x7F DUP3 AND SWAP2 POP JUMPDEST PUSH1 0x20 DUP3 LT DUP2 SUB PUSH2 0x506 JUMPI PUSH4 0x4E487B71 PUSH1 0xE0 SHL PUSH1 0x0 MSTORE PUSH1 0x22 PUSH1 0x4 MSTORE PUSH1 0x24 PUSH1 0x0 REVERT JUMPDEST POP SWAP2 SWAP1 POP JUMP JUMPDEST PUSH1 0x1F DUP3 GT ISZERO PUSH2 0xD7 JUMPI PUSH1 0x0 DUP2 PUSH1 0x0 MSTORE PUSH1 0x20 PUSH1 0x0 KECCAK256 PUSH1 0x1F DUP6 ADD PUSH1 0x5 SHR DUP2 ADD PUSH1 0x20 DUP7 LT ISZERO PUSH2 0x535 JUMPI POP DUP1 JUMPDEST PUSH1 0x1F DUP6 ADD PUSH1 0x5 SHR DUP3 ADD SWAP2 POP JUMPDEST DUP2 DUP2 LT ISZERO PUSH2 0x283 JUMPI DUP3 DUP2 SSTORE PUSH1 0x1 ADD PUSH2 0x541 JUMP JUMPDEST PUSH8 0xFFFFFFFFFFFFFFFF DUP4 GT ISZERO PUSH2 0x56C JUMPI PUSH2 0x56C PUSH2 0x4BC JUMP JUMPDEST PUSH2 0x580 DUP4 PUSH2 0x57A DUP4 SLOAD PUSH2 0x4D2 JUMP JUMPDEST DUP4 PUSH2 0x50C JUMP JUMPDEST PUSH1 0x0 PUSH1 0x1F DUP5 GT PUSH1 0x1 DUP2 EQ PUSH2 0x5B4 JUMPI PUSH1 0x0 DUP6 ISZERO PUSH2 0x59C JUMPI POP DUP4 DUP3 ADD CALLDATALOAD JUMPDEST PUSH1 0x0 NOT PUSH1 0x3 DUP8 SWAP1 SHL SHR NOT AND PUSH1 0x1 DUP7 SWAP1 SHL OR DUP4 SSTORE PUSH2 0x60E JUMP JUMPDEST PUSH1 0x0 DUP4 DUP2 MSTORE PUSH1 0x20 SWAP1 KECCAK256 PUSH1 0x1F NOT DUP7 AND SWAP1 DUP4 JUMPDEST DUP3 DUP2 LT ISZERO PUSH2 0x5E5 JUMPI DUP7 DUP6 ADD CALLDATALOAD DUP3 SSTORE PUSH1 0x20 SWAP5 DUP6 ADD SWAP5 PUSH1 0x1 SWAP1 SWAP3 ADD SWAP2 ADD PUSH2 0x5C5 JUMP JUMPDEST POP DUP7 DUP3 LT ISZERO PUSH2 0x602 JUMPI PUSH1 0x0 NOT PUSH1 0xF8 DUP9 PUSH1 0x3 SHL AND SHR NOT DUP5 DUP8 ADD CALLDATALOAD AND DUP2 SSTORE JUMPDEST POP POP PUSH1 0x1 DUP6 PUSH1 0x1 SHL ADD DUP4 SSTORE JUMPDEST POP POP POP POP POP JUMP JUMPDEST PUSH1 0x0 PUSH1 0x20 DUP1 DUP4 MSTORE PUSH1 0x0 DUP5 SLOAD PUSH2 0x629 DUP2 PUSH2 0x4D2 JUMP JUMPDEST DUP1 PUSH1 0x20 DUP8 ADD MSTORE PUSH1 0x40 PUSH1 0x1 DUP1 DUP5 AND PUSH1 0x0 DUP2 EQ PUSH2 0x64B JUMPI PUSH1 0x1 DUP2 EQ PUSH2 0x667 JUMPI PUSH2 0x697 JUMP JUMPDEST PUSH1 0xFF NOT DUP6 AND PUSH1 0x40 DUP11 ADD MSTORE PUSH1 0x40 DUP5 ISZERO ISZERO PUSH1 0x5 SHL DUP11 ADD ADD SWAP6 POP PUSH2 0x697 JUMP JUMPDEST DUP10 PUSH1 0x0 MSTORE PUSH1 0x20 PUSH1 0x0 KECCAK256 PUSH1 0x0 JUMPDEST DUP6 DUP2 LT ISZERO PUSH2 0x68E JUMPI DUP2 SLOAD DUP12 DUP3 ADD DUP7 ADD MSTORE SWAP1 DUP4 ADD SWAP1 DUP9 ADD PUSH2 0x673 JUMP JUMPDEST DUP11 ADD PUSH1 0x40 ADD SWAP7 POP POP JUMPDEST POP SWAP4 SWAP9 SWAP8 POP POP POP POP POP POP POP POP JUMP JUMPDEST PUSH1 0x0 PUSH1 0x20 DUP3 DUP5 SUB SLT ISZERO PUSH2 0x6B7 JUMPI PUSH1 0x0 DUP1 REVERT JUMPDEST PUSH2 0x6C0 DUP3 PUSH2 0x3C8 JUMP JUMPDEST SWAP4 SWAP3 POP POP POP JUMP JUMPDEST PUSH1 0x0 PUSH1 0x20 DUP3 DUP5 SUB SLT ISZERO PUSH2 0x6D9 JUMPI PUSH1 0x0 DUP1 REVERT JUMPDEST DUP2 MLOAD PUSH2 0x6C0 DUP2 PUSH2 0x319 JUMP INVALID LOG2 PUSH5 0x6970667358 0x22 SLT KECCAK256 0xE 0xD8 XOR SWAP4 DUP2 0xD3 PUSH11 0xF535F7A1A730BB96A0FB3E 0xFC DUP14 0x2E COINBASE 0xB7 SAR ADDMOD 0xCC MCOPY DUP4 0xAA DUP15 PUSH11 0x664736F6C634300081800 CALLER "},"methodIdentifiers":{"permitTransferFrom(((address,uint256),uint256,uint256),(address,uint256),address,bytes)":"30f28b7a","revertReason()":"61b5b636","setShouldRevert(bool,string)":"054cabe0","shouldRevert()":"d3072d82"}}}}}