{
  "_format": "hh-sol-artifact-1",
  "contractName": "MockERC20",
  "sourceName": "contracts/mocks/MockERC20.sol",
  "abi": [
    {
      "anonymous": false,
      "inputs": [
        {
          "indexed": true,
          "internalType": "address",
          "name": "owner",
          "type": "address"
        },
        {
          "indexed": true,
          "internalType": "address",
          "name": "spender",
          "type": "address"
        },
        {
          "indexed": false,
          "internalType": "uint256",
          "name": "value",
          "type": "uint256"
        }
      ],
      "name": "Approval",
      "type": "event"
    },
    {
      "anonymous": false,
      "inputs": [
        {
          "indexed": true,
          "internalType": "address",
          "name": "from",
          "type": "address"
        },
        {
          "indexed": true,
          "internalType": "address",
          "name": "to",
          "type": "address"
        },
        {
          "indexed": false,
          "internalType": "uint256",
          "name": "value",
          "type": "uint256"
        }
      ],
      "name": "Transfer",
      "type": "event"
    },
    {
      "inputs": [
        {
          "internalType": "address",
          "name": "",
          "type": "address"
        },
        {
          "internalType": "address",
          "name": "",
          "type": "address"
        }
      ],
      "name": "allowance",
      "outputs": [
        {
          "internalType": "uint256",
          "name": "",
          "type": "uint256"
        }
      ],
      "stateMutability": "view",
      "type": "function"
    },
    {
      "inputs": [
        {
          "internalType": "address",
          "name": "spender",
          "type": "address"
        },
        {
          "internalType": "uint256",
          "name": "amount",
          "type": "uint256"
        }
      ],
      "name": "approve",
      "outputs": [
        {
          "internalType": "bool",
          "name": "",
          "type": "bool"
        }
      ],
      "stateMutability": "nonpayable",
      "type": "function"
    },
    {
      "inputs": [
        {
          "internalType": "address",
          "name": "",
          "type": "address"
        }
      ],
      "name": "balanceOf",
      "outputs": [
        {
          "internalType": "uint256",
          "name": "",
          "type": "uint256"
        }
      ],
      "stateMutability": "view",
      "type": "function"
    },
    {
      "inputs": [],
      "name": "decimals",
      "outputs": [
        {
          "internalType": "uint8",
          "name": "",
          "type": "uint8"
        }
      ],
      "stateMutability": "view",
      "type": "function"
    },
    {
      "inputs": [
        {
          "internalType": "address",
          "name": "to",
          "type": "address"
        },
        {
          "internalType": "uint256",
          "name": "amount",
          "type": "uint256"
        }
      ],
      "name": "mint",
      "outputs": [],
      "stateMutability": "nonpayable",
      "type": "function"
    },
    {
      "inputs": [],
      "name": "name",
      "outputs": [
        {
          "internalType": "string",
          "name": "",
          "type": "string"
        }
      ],
      "stateMutability": "view",
      "type": "function"
    },
    {
      "inputs": [],
      "name": "symbol",
      "outputs": [
        {
          "internalType": "string",
          "name": "",
          "type": "string"
        }
      ],
      "stateMutability": "view",
      "type": "function"
    },
    {
      "inputs": [
        {
          "internalType": "address",
          "name": "from",
          "type": "address"
        },
        {
          "internalType": "address",
          "name": "to",
          "type": "address"
        },
        {
          "internalType": "uint256",
          "name": "amount",
          "type": "uint256"
        }
      ],
      "name": "transferFrom",
      "outputs": [
        {
          "internalType": "bool",
          "name": "",
          "type": "bool"
        }
      ],
      "stateMutability": "nonpayable",
      "type": "function"
    }
  ],
  "bytecode": "0x60c06040526008608090815267135bd8dac81554d160c21b60a0526000906100279082610111565b506040805180820190915260048152631b5554d160e21b60208201526001906100509082610111565b506002805460ff1916600617905534801561006a57600080fd5b506101d0565b634e487b7160e01b600052604160045260246000fd5b600181811c9082168061009a57607f821691505b6020821081036100ba57634e487b7160e01b600052602260045260246000fd5b50919050565b601f82111561010c576000816000526020600020601f850160051c810160208610156100e95750805b601f850160051c820191505b81811015610108578281556001016100f5565b5050505b505050565b81516001600160401b0381111561012a5761012a610070565b61013e816101388454610086565b846100c0565b602080601f831160018114610173576000841561015b5750858301515b600019600386901b1c1916600185901b178555610108565b600085815260208120601f198616915b828110156101a257888601518255948401946001909101908401610183565b50858210156101c05787850151600019600388901b60f8161c191681555b5050505050600190811b01905550565b61067d806101df6000396000f3fe608060405234801561001057600080fd5b50600436106100885760003560e01c806340c10f191161005b57806340c10f191461010057806370a082311461011557806395d89b4114610143578063dd62ed3e1461014b57600080fd5b806306fdde031461008d578063095ea7b3146100ab57806323b872dd146100ce578063313ce567146100e1575b600080fd5b610095610176565b6040516100a291906104ab565b60405180910390f35b6100be6100b9366004610516565b610204565b60405190151581526020016100a2565b6100be6100dc366004610540565b610271565b6002546100ee9060ff1681565b60405160ff90911681526020016100a2565b61011361010e366004610516565b61042c565b005b61013561012336600461057c565b60036020526000908152604090205481565b6040519081526020016100a2565b61009561049e565b61013561015936600461059e565b600460209081526000928352604080842090915290825290205481565b60008054610183906105d1565b80601f01602080910402602001604051908101604052809291908181526020018280546101af906105d1565b80156101fc5780601f106101d1576101008083540402835291602001916101fc565b820191906000526020600020905b8154815290600101906020018083116101df57829003601f168201915b505050505081565b3360008181526004602090815260408083206001600160a01b038716808552925280832085905551919290917f8c5be1e5ebec7d5bd14f71427d1e84f3dd0314c0f7b2291e5b200ac8c7c3b9259061025f9086815260200190565b60405180910390a35060015b92915050565b6001600160a01b0383166000908152600360205260408120548211156102d55760405162461bcd60e51b8152602060048201526014602482015273696e73756666696369656e742062616c616e636560601b60448201526064015b60405180910390fd5b6001600160a01b03841660009081526004602090815260408083203384529091529020548211156103415760405162461bcd60e51b8152602060048201526016602482015275696e73756666696369656e7420616c6c6f77616e636560501b60448201526064016102cc565b6001600160a01b038416600090815260046020908152604080832033845290915281208054849290610374908490610621565b90915550506001600160a01b038416600090815260036020526040812080548492906103a1908490610621565b90915550506001600160a01b038316600090815260036020526040812080548492906103ce908490610634565b92505081905550826001600160a01b0316846001600160a01b03167fddf252ad1be2c89b69c2b068fc378daa952ba7f163c4a11628f55a4df523b3ef8460405161041a91815260200190565b60405180910390a35060019392505050565b6001600160a01b03821660009081526003602052604081208054839290610454908490610634565b90915550506040518181526001600160a01b038316906000907fddf252ad1be2c89b69c2b068fc378daa952ba7f163c4a11628f55a4df523b3ef9060200160405180910390a35050565b60018054610183906105d1565b60006020808352835180602085015260005b818110156104d9578581018301518582016040015282016104bd565b506000604082860101526040601f19601f8301168501019250505092915050565b80356001600160a01b038116811461051157600080fd5b919050565b6000806040838503121561052957600080fd5b610532836104fa565b946020939093013593505050565b60008060006060848603121561055557600080fd5b61055e846104fa565b925061056c602085016104fa565b9150604084013590509250925092565b60006020828403121561058e57600080fd5b610597826104fa565b9392505050565b600080604083850312156105b157600080fd5b6105ba836104fa565b91506105c8602084016104fa565b90509250929050565b600181811c908216806105e557607f821691505b60208210810361060557634e487b7160e01b600052602260045260246000fd5b50919050565b634e487b7160e01b600052601160045260246000fd5b8181038181111561026b5761026b61060b565b8082018082111561026b5761026b61060b56fea2646970667358221220cd94d1078c20e4f705a89b0296ed7542e708d444b24f68c6fa51ec70edad596964736f6c63430008180033",
  "linkReferences": {},
  "deployedLinkReferences": {}
}