{
  "_format": "hh-sol-artifact-1",
  "contractName": "MockPermit2",
  "sourceName": "contracts/mocks/MockPermit2.sol",
  "abi": [
    {
      "anonymous": false,
      "inputs": [
        {
          "indexed": false,
          "internalType": "address",
          "name": "owner",
          "type": "address"
        },
        {
          "indexed": false,
          "internalType": "address",
          "name": "token",
          "type": "address"
        },
        {
          "indexed": false,
          "internalType": "uint256",
          "name": "amount",
          "type": "uint256"
        },
        {
          "indexed": false,
          "internalType": "address",
          "name": "to",
          "type": "address"
        },
        {
          "indexed": false,
          "internalType": "uint256",
          "name": "nonce",
          "type": "uint256"
        },
        {
          "indexed": false,
          "internalType": "uint256",
          "name": "deadline",
          "type": "uint256"
        }
      ],
      "name": "MockTransferFromCalled",
      "type": "event"
    },
    {
      "inputs": [
        {
          "components": [
            {
              "components": [
                {
                  "internalType": "address",
                  "name": "token",
                  "type": "address"
                },
                {
                  "internalType": "uint256",
                  "name": "amount",
                  "type": "uint256"
                }
              ],
              "internalType": "struct MockPermit2.TokenPermissions",
              "name": "permitted",
              "type": "tuple"
            },
            {
              "internalType": "uint256",
              "name": "nonce",
              "type": "uint256"
            },
            {
              "internalType": "uint256",
              "name": "deadline",
              "type": "uint256"
            }
          ],
          "internalType": "struct MockPermit2.PermitTransferFrom",
          "name": "permit",
          "type": "tuple"
        },
        {
          "components": [
            {
              "internalType": "address",
              "name": "to",
              "type": "address"
            },
            {
              "internalType": "uint256",
              "name": "requestedAmount",
              "type": "uint256"
            }
          ],
          "internalType": "struct MockPermit2.SignatureTransferDetails",
          "name": "transferDetails",
          "type": "tuple"
        },
        {
          "internalType": "address",
          "name": "owner",
          "type": "address"
        },
        {
          "internalType": "bytes",
          "name": "",
          "type": "bytes"
        }
      ],
      "name": "permitTransferFrom",
      "outputs": [],
      "stateMutability": "nonpayable",
      "type": "function"
    },
    {
      "inputs": [],
      "name": "revertReason",
      "outputs": [
        {
          "internalType": "string",
          "name": "",
          "type": "string"
        }
      ],
      "stateMutability": "view",
      "type": "function"
    },
    {
      "inputs": [
        {
          "internalType": "bool",
          "name": "_shouldRevert",
          "type": "bool"
        },
        {
          "internalType": "string",
          "name": "reason",
          "type": "string"
        }
      ],
      "name": "setShouldRevert",
      "outputs": [],
      "stateMutability": "nonpayable",
      "type": "function"
    },
    {
      "inputs": [],
      "name": "shouldRevert",
      "outputs": [
        {
          "internalType": "bool",
          "name": "",
          "type": "bool"
        }
      ],
      "stateMutability": "view",
      "type": "function"
    }
  ],
  "bytecode": "0x60c0604052601a60809081527f4d6f636b5065726d6974323a20666f726365642072657665727400000000000060a05260019061003c90826100f0565b5034801561004957600080fd5b506101af565b634e487b7160e01b600052604160045260246000fd5b600181811c9082168061007957607f821691505b60208210810361009957634e487b7160e01b600052602260045260246000fd5b50919050565b601f8211156100eb576000816000526020600020601f850160051c810160208610156100c85750805b601f850160051c820191505b818110156100e7578281556001016100d4565b5050505b505050565b81516001600160401b038111156101095761010961004f565b61011d816101178454610065565b8461009f565b602080601f831160018114610152576000841561013a5750858301515b600019600386901b1c1916600185901b1785556100e7565b600085815260208120601f198616915b8281101561018157888601518255948401946001909101908401610162565b508582101561019f5787850151600019600388901b60f8161c191681555b5050505050600190811b01905550565b61071a806101be6000396000f3fe608060405234801561001057600080fd5b506004361061004c5760003560e01c8063054cabe01461005157806330f28b7a1461006657806361b5b63614610079578063d3072d8214610097575b600080fd5b61006461005f366004610373565b6100b4565b005b6100646100743660046103e4565b6100dc565b61008161028b565b60405161008e919061046d565b60405180910390f35b6000546100a49060ff1681565b604051901515815260200161008e565b6000805460ff191684151517905580156100d75760016100d5828483610554565b505b505050565b60005460ff161561010b57600160405162461bcd60e51b81526004016101029190610615565b60405180910390fd5b84606001354211156101565760405162461bcd60e51b8152602060048201526014602482015273135bd8dad4195c9b5a5d0c8e88195e1c1a5c995960621b6044820152606401610102565b7f4c4afb04e07efc66bf529604dce6e652d2eea42083ad0b965b5e5f11af3476a58361018560208801886106a5565b6020870180359061019690896106a5565b604080516001600160a01b0395861681529385166020850152838101929092529092166060808301919091529188013560808201529087013560a082015260c00160405180910390a16101ec60208601866106a5565b6001600160a01b03166323b872dd8461020860208801886106a5565b6040516001600160e01b031960e085901b1681526001600160a01b03928316600482015291166024820152602087013560448201526064016020604051808303816000875af115801561025f573d6000803e3d6000fd5b505050506040513d601f19601f8201168201806040525081019061028391906106c7565b505050505050565b60018054610298906104d2565b80601f01602080910402602001604051908101604052809291908181526020018280546102c4906104d2565b80156103115780601f106102e657610100808354040283529160200191610311565b820191906000526020600020905b8154815290600101906020018083116102f457829003601f168201915b505050505081565b801515811461032757600080fd5b50565b60008083601f84011261033c57600080fd5b50813567ffffffffffffffff81111561035457600080fd5b60208301915083602082850101111561036c57600080fd5b9250929050565b60008060006040848603121561038857600080fd5b833561039381610319565b9250602084013567ffffffffffffffff8111156103af57600080fd5b6103bb8682870161032a565b9497909650939450505050565b80356001600160a01b03811681146103df57600080fd5b919050565b60008060008060008587036101008112156103fe57600080fd5b608081121561040c57600080fd5b8695506040607f198201121561042157600080fd5b5060808601935061043460c087016103c8565b925060e086013567ffffffffffffffff81111561045057600080fd5b61045c8882890161032a565b969995985093965092949392505050565b60006020808352835180602085015260005b8181101561049b5785810183015185820160400152820161047f565b506000604082860101526040601f19601f8301168501019250505092915050565b634e487b7160e01b600052604160045260246000fd5b600181811c908216806104e657607f821691505b60208210810361050657634e487b7160e01b600052602260045260246000fd5b50919050565b601f8211156100d7576000816000526020600020601f850160051c810160208610156105355750805b601f850160051c820191505b8181101561028357828155600101610541565b67ffffffffffffffff83111561056c5761056c6104bc565b6105808361057a83546104d2565b8361050c565b6000601f8411600181146105b4576000851561059c5750838201355b600019600387901b1c1916600186901b17835561060e565b600083815260209020601f19861690835b828110156105e557868501358255602094850194600190920191016105c5565b50868210156106025760001960f88860031b161c19848701351681555b505060018560011b0183555b5050505050565b6000602080835260008454610629816104d2565b806020870152604060018084166000811461064b576001811461066757610697565b60ff19851660408a0152604084151560051b8a01019550610697565b89600052602060002060005b8581101561068e5781548b8201860152908301908801610673565b8a016040019650505b509398975050505050505050565b6000602082840312156106b757600080fd5b6106c0826103c8565b9392505050565b6000602082840312156106d957600080fd5b81516106c08161031956fea26469706673582212200ed8189381d36af535f7a1a730bb96a0fb3efc8d2e41b71d08cc5e83aa8e6a0664736f6c63430008180033",
  "linkReferences": {},
  "deployedLinkReferences": {}
}