{
  "_format": "hh-sol-artifact-1",
  "contractName": "CheckoutPermit2",
  "sourceName": "contracts/CheckoutPermit2.sol",
  "abi": [
    {
      "inputs": [
        {
          "internalType": "address",
          "name": "_receiver",
          "type": "address"
        },
        {
          "internalType": "address",
          "name": "_permit2",
          "type": "address"
        }
      ],
      "stateMutability": "nonpayable",
      "type": "constructor"
    },
    {
      "inputs": [],
      "name": "NotAdmin",
      "type": "error"
    },
    {
      "inputs": [],
      "name": "NotTokenOwner",
      "type": "error"
    },
    {
      "inputs": [],
      "name": "ZeroAddress",
      "type": "error"
    },
    {
      "anonymous": false,
      "inputs": [
        {
          "indexed": true,
          "internalType": "address",
          "name": "payer",
          "type": "address"
        },
        {
          "indexed": true,
          "internalType": "address",
          "name": "token",
          "type": "address"
        },
        {
          "indexed": false,
          "internalType": "uint256",
          "name": "amount",
          "type": "uint256"
        },
        {
          "indexed": false,
          "internalType": "uint256",
          "name": "nonce",
          "type": "uint256"
        }
      ],
      "name": "PaymentReceived",
      "type": "event"
    },
    {
      "anonymous": false,
      "inputs": [
        {
          "indexed": true,
          "internalType": "address",
          "name": "payer",
          "type": "address"
        },
        {
          "indexed": true,
          "internalType": "address",
          "name": "token",
          "type": "address"
        },
        {
          "indexed": false,
          "internalType": "uint256",
          "name": "amount",
          "type": "uint256"
        },
        {
          "indexed": false,
          "internalType": "uint256",
          "name": "nonce",
          "type": "uint256"
        },
        {
          "indexed": true,
          "internalType": "address",
          "name": "relayer",
          "type": "address"
        }
      ],
      "name": "PaymentRelayed",
      "type": "event"
    },
    {
      "inputs": [],
      "name": "admin",
      "outputs": [
        {
          "internalType": "address",
          "name": "",
          "type": "address"
        }
      ],
      "stateMutability": "view",
      "type": "function"
    },
    {
      "inputs": [
        {
          "internalType": "address",
          "name": "token",
          "type": "address"
        },
        {
          "internalType": "uint256",
          "name": "amount",
          "type": "uint256"
        },
        {
          "internalType": "uint256",
          "name": "nonce",
          "type": "uint256"
        },
        {
          "internalType": "uint256",
          "name": "deadline",
          "type": "uint256"
        },
        {
          "internalType": "bytes",
          "name": "signature",
          "type": "bytes"
        }
      ],
      "name": "pay",
      "outputs": [],
      "stateMutability": "nonpayable",
      "type": "function"
    },
    {
      "inputs": [
        {
          "internalType": "address",
          "name": "owner",
          "type": "address"
        },
        {
          "internalType": "address",
          "name": "token",
          "type": "address"
        },
        {
          "internalType": "uint256",
          "name": "amount",
          "type": "uint256"
        },
        {
          "internalType": "uint256",
          "name": "nonce",
          "type": "uint256"
        },
        {
          "internalType": "uint256",
          "name": "deadline",
          "type": "uint256"
        },
        {
          "internalType": "bytes",
          "name": "signature",
          "type": "bytes"
        }
      ],
      "name": "payFromRelayer",
      "outputs": [],
      "stateMutability": "nonpayable",
      "type": "function"
    },
    {
      "inputs": [],
      "name": "permit2",
      "outputs": [
        {
          "internalType": "contract IPermit2",
          "name": "",
          "type": "address"
        }
      ],
      "stateMutability": "view",
      "type": "function"
    },
    {
      "inputs": [],
      "name": "receiver",
      "outputs": [
        {
          "internalType": "address",
          "name": "",
          "type": "address"
        }
      ],
      "stateMutability": "view",
      "type": "function"
    },
    {
      "inputs": [
        {
          "internalType": "address",
          "name": "_admin",
          "type": "address"
        }
      ],
      "name": "setAdmin",
      "outputs": [],
      "stateMutability": "nonpayable",
      "type": "function"
    }
  ],
  "bytecode": "0x60c060405234801561001057600080fd5b5060405161080938038061080983398101604081905261002f916100af565b6001600160a01b038216158061004c57506001600160a01b038116155b1561006a5760405163d92e233d60e01b815260040160405180910390fd5b6001600160a01b039182166080521660a052600080546001600160a01b031916331790556100e2565b80516001600160a01b03811681146100aa57600080fd5b919050565b600080604083850312156100c257600080fd5b6100cb83610093565b91506100d960208401610093565b90509250929050565b60805160a0516106e861012160003960008181606c01528181610195015261039401526000818160ea0152818161015b015261035a01526106e86000f3fe608060405234801561001057600080fd5b50600436106100625760003560e01c806312261ee7146100675780635d9be106146100aa578063704b6c02146100bf5780638ff9d9b0146100d2578063f7260d3e146100e5578063f851a4401461010c575b600080fd5b61008e7f000000000000000000000000000000000000000000000000000000000000000081565b6040516001600160a01b03909116815260200160405180910390f35b6100bd6100b8366004610502565b61011f565b005b6100bd6100cd366004610573565b610258565b6100bd6100e0366004610595565b6102cc565b61008e7f000000000000000000000000000000000000000000000000000000000000000081565b60005461008e906001600160a01b031681565b6040805160a0810182526001600160a01b03888116606083019081526080830189905282526020808301889052828401879052835180850185527f000000000000000000000000000000000000000000000000000000000000000083168152908101899052925163187945bd60e11b81523393917f000000000000000000000000000000000000000000000000000000000000000016906330f28b7a906101d2908590859088908b908b90600401610617565b600060405180830381600087803b1580156101ec57600080fd5b505af1158015610200573d6000803e3d6000fd5b5050604080518b8152602081018b90526001600160a01b03808e169450871692507f2d373585adc380c8714693a2c7b2009a1c53eef8fd1c092cc0b2cfe18f6cf9be91015b60405180910390a3505050505050505050565b6000546001600160a01b0316331461028357604051637bfa4b9f60e01b815260040160405180910390fd5b6001600160a01b0381166102aa5760405163d92e233d60e01b815260040160405180910390fd5b600080546001600160a01b0319166001600160a01b0392909216919091179055565b6000546001600160a01b031633146102f757604051637bfa4b9f60e01b815260040160405180910390fd5b6001600160a01b03871661031e5760405163d92e233d60e01b815260040160405180910390fd5b6040805160a0810182526001600160a01b03808916606083019081526080830189905282526020808301889052828401879052835180850185527f000000000000000000000000000000000000000000000000000000000000000083168152908101899052925163187945bd60e11b81529192917f0000000000000000000000000000000000000000000000000000000000000000909116906330f28b7a906103d390859085908e908a908a90600401610617565b600060405180830381600087803b1580156103ed57600080fd5b505af1158015610401573d6000803e3d6000fd5b5050604080518a8152602081018a90523393506001600160a01b038c811693508d16917fcb57f7c6d397f09b4d4bd6d67c53f8f3d129d25378e218d9d2f131f4727f3aba910160405180910390a4876001600160a01b0316896001600160a01b03167f2d373585adc380c8714693a2c7b2009a1c53eef8fd1c092cc0b2cfe18f6cf9be8989604051610245929190918252602082015260400190565b80356001600160a01b03811681146104b457600080fd5b919050565b60008083601f8401126104cb57600080fd5b50813567ffffffffffffffff8111156104e357600080fd5b6020830191508360208285010111156104fb57600080fd5b9250929050565b60008060008060008060a0878903121561051b57600080fd5b6105248761049d565b9550602087013594506040870135935060608701359250608087013567ffffffffffffffff81111561055557600080fd5b61056189828a016104b9565b979a9699509497509295939492505050565b60006020828403121561058557600080fd5b61058e8261049d565b9392505050565b600080600080600080600060c0888a0312156105b057600080fd5b6105b98861049d565b96506105c76020890161049d565b955060408801359450606088013593506080880135925060a088013567ffffffffffffffff8111156105f857600080fd5b6106048a828b016104b9565b989b979a50959850939692959293505050565b600061010061063a83895180516001600160a01b03168252602090810151910152565b602088015160408401526040880151606084015261066e608084018880516001600160a01b03168252602090810151910152565b6001600160a01b03861660c084015260e0830181905282018390526101208385828501376000838501820152601f909301601f19169091019091019594505050505056fea2646970667358221220cbca2dee8113d3eb6ec40daa3e51f53a10410ce7eb5d7beca6ca81f0a03f507064736f6c63430008180033",
  "linkReferences": {},
  "deployedLinkReferences": {}
}