{
  "_format": "hh-sol-artifact-1",
  "contractName": "CheckoutPermit2",
  "sourceName": "contracts/CheckoutPermit2.sol",
  "abi": [
    {
      "inputs": [
        {
          "internalType": "address",
          "name": "_receiver",
          "type": "address"
        },
        {
          "internalType": "address",
          "name": "_permit2",
          "type": "address"
        }
      ],
      "stateMutability": "nonpayable",
      "type": "constructor"
    },
    {
      "inputs": [],
      "name": "NotTokenOwner",
      "type": "error"
    },
    {
      "inputs": [],
      "name": "ZeroAddress",
      "type": "error"
    },
    {
      "anonymous": false,
      "inputs": [
        {
          "indexed": true,
          "internalType": "address",
          "name": "payer",
          "type": "address"
        },
        {
          "indexed": true,
          "internalType": "address",
          "name": "token",
          "type": "address"
        },
        {
          "indexed": false,
          "internalType": "uint256",
          "name": "amount",
          "type": "uint256"
        },
        {
          "indexed": false,
          "internalType": "uint256",
          "name": "nonce",
          "type": "uint256"
        }
      ],
      "name": "PaymentReceived",
      "type": "event"
    },
    {
      "inputs": [
        {
          "internalType": "address",
          "name": "token",
          "type": "address"
        },
        {
          "internalType": "uint256",
          "name": "amount",
          "type": "uint256"
        },
        {
          "internalType": "uint256",
          "name": "nonce",
          "type": "uint256"
        },
        {
          "internalType": "uint256",
          "name": "deadline",
          "type": "uint256"
        },
        {
          "internalType": "bytes",
          "name": "signature",
          "type": "bytes"
        }
      ],
      "name": "pay",
      "outputs": [],
      "stateMutability": "nonpayable",
      "type": "function"
    },
    {
      "inputs": [],
      "name": "permit2",
      "outputs": [
        {
          "internalType": "contract IPermit2",
          "name": "",
          "type": "address"
        }
      ],
      "stateMutability": "view",
      "type": "function"
    },
    {
      "inputs": [],
      "name": "receiver",
      "outputs": [
        {
          "internalType": "address",
          "name": "",
          "type": "address"
        }
      ],
      "stateMutability": "view",
      "type": "function"
    }
  ],
  "bytecode": "0x60c060405234801561001057600080fd5b5060405161047c38038061047c83398101604081905261002f9161009d565b6001600160a01b038216158061004c57506001600160a01b038116155b1561006a5760405163d92e233d60e01b815260040160405180910390fd5b6001600160a01b039182166080521660a0526100d0565b80516001600160a01b038116811461009857600080fd5b919050565b600080604083850312156100b057600080fd5b6100b983610081565b91506100c760208401610081565b90509250929050565b60805160a05161037b61010160003960008181604b015261013b01526000818160a30152610101015261037b6000f3fe608060405234801561001057600080fd5b50600436106100415760003560e01c806312261ee7146100465780635d9be10614610089578063f7260d3e1461009e575b600080fd5b61006d7f000000000000000000000000000000000000000000000000000000000000000081565b6040516001600160a01b03909116815260200160405180910390f35b61009c6100973660046101fd565b6100c5565b005b61006d7f000000000000000000000000000000000000000000000000000000000000000081565b6040805160a0810182526001600160a01b03888116606083019081526080830189905282526020808301889052828401879052835180850185527f000000000000000000000000000000000000000000000000000000000000000083168152908101899052925163187945bd60e11b81523393917f000000000000000000000000000000000000000000000000000000000000000016906330f28b7a90610178908590859088908b908b906004016102aa565b600060405180830381600087803b15801561019257600080fd5b505af11580156101a6573d6000803e3d6000fd5b5050604080518b8152602081018b90526001600160a01b03808e169450871692507f2d373585adc380c8714693a2c7b2009a1c53eef8fd1c092cc0b2cfe18f6cf9be910160405180910390a3505050505050505050565b60008060008060008060a0878903121561021657600080fd5b86356001600160a01b038116811461022d57600080fd5b9550602087013594506040870135935060608701359250608087013567ffffffffffffffff8082111561025f57600080fd5b818901915089601f83011261027357600080fd5b81358181111561028257600080fd5b8a602082850101111561029457600080fd5b6020830194508093505050509295509295509295565b60006101006102cd83895180516001600160a01b03168252602090810151910152565b6020880151604084015260408801516060840152610301608084018880516001600160a01b03168252602090810151910152565b6001600160a01b03861660c084015260e0830181905282018390526101208385828501376000838501820152601f909301601f19169091019091019594505050505056fea26469706673582212207cb524eb16e8aedbfeffe35d7f1b9ce574340941526dc5f4935bb12fee15ae5d64736f6c63430008180033",
  "linkReferences": {},
  "deployedLinkReferences": {}
}